:200000000C94C03C0C947F000C947F000C947F000C947F000C947F000C947F000C94B00139
:200020000C947F000C947F000C947F000C947F000C947F000C947F000C947F000C947F00C8
:200040000C9466010C947F000C947F000C947F000C947F000C947F000C947F000C947F00C0
:200060000C947F000C947F00020000000023002600290000000000240027002A0000000059
:2000800000250028002B00040404040404040402020202020203030303030301020408108B
:2000A0002040800102040810200102040810200000000800020100000304070000000000C9
:2000C0000000000011241FBECFEFD8E0DEBFCDBF11E0A0E0B1E0E6EDF0E102C005900D92D3
:2000E000AE3EB107D9F722E0AEEEB1E001C01D92A532B207E1F70E9432020C9469080C94FE
:200100000000833081F028F4813099F08230A9F008958730A9F08830C9F08430B1F4809152
:2001200080008F7D03C0809180008F7780938000089584B58F7784BD089584B58F7DFBCF7D
:200140008091B0008F778093B00008958091B0008F7DF9CF1F93CF93DF93282F30E0F901FC
:20016000E155FF4F8491F901E556FF4FD491F901E957FF4FC491CC23A9F0162F81110E9420
:200180008100EC2FF0E0EE0FFF1FE358FF4FA591B4918FB7F894EC91111108C0D095DE2335
:2001A000DC938FBFDF91CF911F910895DE2BF8CFCF93DF9390E0FC01E556FF4F2491895736
:2001C0009F4FFC0184918823D1F090E0880F991FFC01ED58FF4FA591B491FC01E358FF4F63
:2001E000C591D49161110EC09FB7F8948C91E22FE0958E238C932881E223E8839FBFDF91C8
:20020000CF9108958FB7F894EC91E22BEC938FBFF6CF1F93CF93DF93182FEB0161E00E9457
:20022000D800209739F460E0812FDF91CF911F910C94AA00CF3FD10511F461E0F5CFE12F4A
:20024000F0E0E155FF4FE491E33031F140F4E130B1F0E230E1F0C038D1057CF7E4CFE730CC
:2002600029F1E83059F1E430B1F780918000806280938000D0938B00C0938A0004C084B578
:20028000806884BDC7BDDF91CF911F91089584B5806284BDC8BDF7CF809180008068809361
:2002A0008000D0938900C0938800EDCF8091B00080688093B000C093B300E5CF8091B00054
:2002C00080628093B000C093B400DDCF1F920F920FB60F9211242F933F938F939F93AF93AF
:2002E000BF938091210290912202A0912302B09124023091200223E0230F2D3758F5019616
:20030000A11DB11D209320028093210290932202A0932302B093240280911C0290911D02CF
:20032000A0911E02B0911F020196A11DB11D80931C0290931D02A0931E02B0931F02BF916D
:20034000AF919F918F913F912F910F900FBE0F901F90189526E8230F0296A11DB11DD2CF11
:200360001F920F920FB60F9211242F933F934F935F936F937F938F939F93AF93BF93EF93AA
:20038000FF938091F3019091F401A091F501B091F601892B8A2B8B2BD1F19091EE01E091EF
:2003A000EF01F091F0018081892780838091F3019091F401A091F501B091F6011816190660
:2003C0001A061B069CF48091F3019091F401A091F501B091F6010197A109B1098093F301CF
:2003E0009093F401A093F501B093F601FF91EF91BF91AF919F918F917F916F915F914F91B2
:200400003F912F910F900FBE0F901F90189580910001E8E6F0E0E4919FEF90930001E130FD
:2004200051F030F0E23069F060E00E94AA00DECF10926E00F9CF90916F009D7F90936F00A1
:20044000F3CF909170009D7F9093700091E09093B0009091B100987F94609093B100109203
:20046000B300E2CFCF93DF93CDB7DEB729970FB6F894DEBF0FBECDBF789484B5826084BDBC
:2004800084B5816084BD85B5826085BD85B5816085BD80916E00816080936E001092810042
:2004A000809181008260809381008091810081608093810080918000816080938000809117
:2004C000B10084608093B1008091B00081608093B00080917A00846080937A0080917A00D7
:2004E000826080937A0080917A00816080937A0080917A00806880937A001092C10061E0F0
:2005000085E00E94D80061E08EE00E94D80061E081E00E94D800269A279A2E9A2F9A81E044
:20052000809304028093030261E089E00E94D80061E086E00E94D80061E08AE00E94D80020
:2005400060E08FE00E94D80061E08FE00E94AA008FB7F89440902102509022026090230298
:20056000709024028FBF80911B02882309F4D3C18091170290911802A0911902B0911A028F
:20058000B301A201481B590B6A0B7B0B8091020190910301A0910401B091050148175907CD
:2005A0006A077B070CF4B7C140921702509218026092190270921A022091FF01309100024A
:2005C000220F331F220F331F2A5F3E4F3A832983F9016281738184EF91E00E94F1078B01BB
:2005E000072E000C880B990B0E94F8062DEC3CEC4CEC5FE30E945C070E94C0066D837E83CA
:200600008F839887E981FA812080318080910001823009F07CC0E8E6F0E0F491F987F7FDE3
:200620005FC161E082E00E94D800F985FF2321F02985223009F0C4C14101B12CA12C60E022
:2006400072E18AE790E0A50191010E943B0829833A834B835C8369017A0131E0C31AD10887
:20066000E108F1084FEFC416D104E104F10409F00CF410C160E472E48FE090E0A501910156
:200680000E943B0869017A0181E0C81AD108E108F1089985923009F0B1C082E0EFEFCE1624
:2006A000D104E104F10409F00CF463C360E970ED83E090E0A50191010E943B0869017A01F1
:2006C000F1E0CF1AD108E108F10883E02FEFC216D104E104F10409F00CF44BC368E478EEE4
:2006E00081E090E0A50191010E943B0869017A0181E0C81AD108E108F1089FEFC916D104E7
:20070000E104F10411F00CF09DC084E032C38F3F09F0E6C082E080930001E8E6F0E0F49146
:20072000F987FF3F09F4DCC0F13031F158F0F23009F441C0898587FDD3C061E082E00E944D
:20074000D80076CF14BC15BC84B5826084BD85B5816085BDE9E8F0E08491E82FF0E0EE0F88
:20076000FF1FE358FF4F85919491EDE9F0E084918093F201198655CF1092800010928100CE
:200780008091810088608093810080918100816080938100E9E8F0E08491E82FF0E0EE0FAA
:2007A000FF1FE358FF4F85919491EDE9F0E084918093F10136CF1092B0001092B1008091DC
:2007C000B00082608093B0008091B10081608093B100E9E8F0E08491E82FF0E0EE0FFF1FA5
:2007E000E358FF4F859194919093F0018093EF01EDE9F0E084918093EE0113CF3FEFC31678
:20080000D104E104F10409F00CF4D8C068E478EE81E090E0A50191010E943B0869017A0113
:2008200081E0C81AD108E108F1089985992309F46CC2FFEFCF16D104E104F10409F00CF43A
:2008400064CF6CC264E274EF80E090E0A50194010E943B0869017A01E1E0CE1AD108E1084E
:20086000F10885E0FFEFCF16D104E104F10409F008F47FC262E17AE780E090E0A5019401B3
:200880000E943B0869017A0181E0C81AD108E108F10856C281E0E985E1116BC295B5987F29
:2008A000892B85BD2FEF3FEFA9010115110509F0BFC0F985F13009F4C8C0F23009F4D7C0CE
:2008C000F1110EC0C7BC2093FB013093FC014093FD015093FE0180916E00826080936E00C1
:2008E0002D813E81C901330FAA0BBB0B8093020190930301A0930401B09305018091FF0135
:200900009091000201968433910508F0C0C0909300028093FF018091130290911402A09192
:200920001502B0911602A3019201281B390B4A0B5B0BDA01C9010697A105B1050CF4B8C0B8
:200940004092130250921402609215027092160240910102509102025A834983BA017727DA
:2009600089E00E94090124E6E981FA812E9FC0012F9F900D11246FEF70E00E94050877274A
:2009800086E00E94090170E060E08AE00E9409018091010129813A81280F311D87FD3A954F
:2009A0003A832983121613060CF478C010920202109201028195809301017AC082E06BCF09
:2009C000B12CA12C60E072E18AE790E0A50191010E943B0869017A01F1E0CF1AD108E1087B
:2009E000F10891E0C114D10421E0E206F10484F068E478EE81E090E0A50191010E943B08F1
:200A000069017A0181E0C81AD108E108F10893E0E985E13009F046CF80918100887F892BA6
:200A2000809381002FEF3FEFA9010115110569F09101220F331FD8010E945A0828EE33E08C
:200A400040E050E00E94190834CFD0928900C09288002093F7013093F8014093F9015093A4
:200A6000FA0180916F00826080936F0039CFC092B3002093F3013093F4014093F50150937F
:200A8000F6018091700082608093700029CF109200021092FF0110921B023DCF49815A81CB
:200AA0004F3F51050CF0FDC0509302024093010280910F0290911002A0911102B0911202EE
:200AC000A3019201281B390B4A0B5B0BDA01C9018C329140A105B1050CF46BC040920F02FF
:200AE000509210026092110270921202809105029091060268E170E00E94F107FC01EA523A
:200B0000FE4F40814983642F6095617085E00E94AA0069816695617051E065278EE00E946E
:200B2000AA00898182FB662760F991E0692781E00E94AA0021E049814870E981E3FF20E021
:200B400080910402882309F4B3C035B181E090E0442311F090E080E056E0880F991F5A9500
:200B6000E1F7832785B92093040221E049814071F981F4FF20E080910302882309F4A0C0F5
:200B800035B181E090E0442311F090E080E09695982F882797958795832785B920930302DD
:200BA000809105029091060201969093060280930502EEEBF0E08491EAEAF0E024912D8351
:200BC000E6E9F0E034913983332309F480C081110E9481004981E42FF0E0EE0FFF1FE759A5
:200BE000FF4FA591B491EC915D815E2391E080E009F490E0292F382F80910D0290910E0202
:200C00008217930799F04FB7F8948091210290912202A0912302B09124024FBF8093090224
:200C200090930A02A0930B02B0930C024FB7F8948091210290912202A0912302B09124022C
:200C40004FBF4091090250910A0260910B0270910C02841B950BA60BB70BC397A105B10548
:200C6000A0F080910702909108028217930769F030930802209307022130310531F48091CD
:200C80001B0291E0892780931B0230930E0220930D0280E090E0892B09F45ACC0E94000008
:200CA00057CCEFEFF0E0F0930202E093010282CE95B1822F8295880F880F807C892752CF0D
:200CC00095B1822F879588278795892766CF30E020E092CF84E0EFEFCE16D104E104F1040B
:200CE00009F008F4DBCDC980DA80EB80FC809AE0F594E794D794C7949A95D1F791E0C91A3E
:200D0000D108E108F10885E0C9CD83E0EFEFCE16D104E104F10409F00CF4C0CD62E17AE71F
:200D200080E090E0A50194010E943B0869017A0181E0C81AD108E108F1089985992351F2C3
:200D400086E02FEFC216D104E104F10491F088F0C980DA80EB80FC808AE0F594E794D7942C
:200D6000C7948A95D1F7F1E0CF1AD108E108F10887E09091B100987F892B8093B10092CD95
:200D80000E94C7066894B1110C94560708950E943B0788F09F5798F0B92F9927B751B0F062
:200DA000E1F0660F771F881F991F1AF0BA95C9F714C0B13091F00E945507B1E008950C94DD
:200DC0005507672F782F8827B85F39F0B93FCCF3869577956795B395D9F73EF4909580952D
:200DE000709561957F4F8F4F9F4F0895E89409C097FB3EF490958095709561957F4F8F4FD7
:200E00009F4F9923A9F0F92F96E9BB279395F695879577956795B795F111F8CFFAF4BB0F62
:200E200011F460FF1BC06F5F7F4F8F4F9F4F16C0882311F096E911C0772321F09EE8872F52
:200E4000762F05C0662371F096E8862F70E060E02AF09A95660F771F881FDAF7880F9695ED
:200E6000879597F9089557FD9058440F551F59F05F3F71F04795880F97FB991F61F09F3FF2
:200E800079F087950895121613061406551FF2CF4695F1DF08C0161617061806991FF1CF4E
:200EA00086957105610508940895E894BB2766277727CB0197F908950E946F070C94E007E1
:200EC0000E94D20738F00E94D90720F0952311F00C94C9070C94CF0711240C9456070E946A
:200EE000330770F3959FC1F3950F50E0551F629FF001729FBB27F00DB11D639FAA27F00DA5
:200F0000B11DAA1F649F6627B00DA11D661F829F2227B00DA11D621F739FB00DA11D621F36
:200F2000839FA00D611D221F749F3327A00D611D231F849F600D211D822F762F6A2F112457
:200F40009F5750409AF0F1F088234AF0EE0FFF1FBB1F661F771F881F91505040A9F79E3F16
:200F6000510580F00C94C9070C9456075F3FE4F3983ED4F3869577956795B795F795E795B5
:200F80009F5FC1F7FE2B880F911D9695879597F9089597F99F6780E870E060E008959FEF00
:200FA00080EC089500240A941616170618060906089500240A94121613061406050608958E
:200FC000092E0394000C11F4882352F0BB0F40F4BF2B11F460FF04C06F5F7F4F8F4F9F4FCD
:200FE0000895AA1BBB1B51E107C0AA1FBB1FA617B70710F0A61BB70B881F991F5A95A9F731
:2010000080959095BC01CD01089597FB072E16F4009407D077FD09D00E94F10707FC05D073
:201020003EF4909581959F4F0895709561957F4F0895A1E21A2EAA1BBB1BFD010DC0AA1F58
:20104000BB1FEE1FFF1FA217B307E407F50720F0A21BB30BE40BF50B661F771F881F991F3D
:201060001A9469F760957095809590959B01AC01BD01CF010895052E97FB1EF400940E94AD
:20108000520857FD07D00E94190807FC03D04EF40C94520850954095309521953F4F4F4F95
:2010A0005F4F089590958095709561957F4F8F4F9F4F0895A29FB001B39FC001A39F700DB5
:2010C000811D1124911DB29F700D811D1124911D0895F894FFCFFF030A0000001003080022
:2010E000BA02080093020400930204004B0204004B0204000B020200000004004B020800F0
:2011000093020800BA020400BA02040093020400930204004B020200000004004B020800D8
:2011200093020800BA020400BA020400100304004B02080093020800BA020400BA02040009
:201140001003040010030800BA020800930204009302040010030400100304004B020400E8
:201160004B0204001003040010030800BA02080093020400930204004B0204004B02040054
:201180000B0204000000040070030300BA02080093020400930204004B0204004B0204002C
:2011A0000B0204000000040000000200191A141C1A19111A1C1C0A19191A141C1A19190A43
:2011C0001C1C1219FFFFFFFFFFFFFFFFFFFFFFFFFFFFFFFFFFFFFFFFFFFFFFFFFFFFFFFFC8
:20796000FFFFFFFFFFFFFFFFFFFFFFFFFFFFFFFFFFFFFFFFFFFFFFFFFFFFA9000C94620076
:2079800017C00000797A800A950F00000902120001010080320904000000000000001201FE
:2079A0001001FF000008D016530706020000000111241FBECFEFD8E0CDBFDEBF21E0A0E034
:2079C000B1E001C01D92AC32B207E1F786C1DC018FEF9FEF332715C02D912827722F229573
:2079E0002727822F26952695282723952270321777952795822F8927972F769527959727BC
:207A00008227615048F7809590958D939D930895CF93CFB7CF93C3951C9BE9F71C9B09C0ED
:207A20001C9B07C01C9B05C01C9B03C01C9B01C0A7C0DF93C0910E01DD27CA5EDE4F1C9B11
:207A400002C0DF91EBCF2F930F931F9303B12FEF04FB20F94F933F9313B14FEF012704FB5D
:207A600021F93BE031C04E7F012F13B1216028C0102F4D7F2260000003B129C04B7F24603E
:207A8000012F000013B12BC013B1477F28602AC04F7E03B120612CC04F7D13B120622FC01C
:207AA0004F7B03B1206432C0422703B149934FEF0000102714FB20F913B11871C9F1297F8D
:207AC00091F2012704FB21F903B1237F89F2315058F1102714FB22F913B1277E79F20127EA
:207AE00004FB23F92F7C81F203B1102714FB24F92F7971F200C013B1012704FB25F92F73C0
:207B000059F200C003B1102714FB26F9223040F200C013B1012704FB27F9243028F64F77BA
:207B2000206813B10000F9CF11E01BBB00271DC03B503195C31BD04011E01BBB0881033C98
:207B400019F10B3409F120910C011981110F1213EDCF093641F10D3211F0013E39F7CAE0BF
:207B60001BB310FD02C0CA95D9F7009314013F914F911F910F912F91DF91CBB3C0FD4BCF0C
:207B8000CF91CFBFCF91089520911401222379F3109112011123E1F43430E2F030931201BA
:207BA00020930D0117C00091120101308CF40AE530910F0134FD10C000930F01C1E0D1E022
:207BC0000FC02795A8F45150A9F4220F0000F9CF4AE503C042ED01C0432FC4E1D0E032E08C
:207BE00014B118612C9A14B905B120E418E15F93012756E005B9279520F4515021F4220F3C
:207C0000F9CF012756E000003B5A05B9D0F2279528F4515029F4220F0000F9CF012756E03C
:207C2000279505B920F4515021F4220FF9CF012756E02991332305B921F6077E109113018A
:207C4000110FC651D04005B911F010930C0111E01BBB006114B1177E402F477E5F9100C008
:207C600000C005B914B945B982CF1C9BFECF09D008D001D000D0975A70916600791B7093A5
:207C800066006FEF8BE29927669573B170298B9673FB67F903B004FE6623B1F70895F201D6
:207CA000309761F0E230F10561F02AE7421629E7520649F48091660090E005C08CE094E9B0
:207CC00002C080EC9CE321E00C0120935700E8951124CF0102962C01089580916600282E2E
:207CE000EAE7F9E7E491EF3F19F0E09366000000A89514BE809160008861809360001092D0
:207D00006000249A88EB9BE0ECE2F1E03197F1F70197D1F724988AE580930F018FEF8093C9
:207D2000000180916B00886080936B0080916800816080936800229A712C312C412C512CEB
:207D4000C0EADFE014E683B1887109F014E6115029F41092130110920C0187DFD89B04C020
:207D600057DE81E08BBB02C0219769F7A8959091660020926600832D823081F4E0E8F9E7F2
:207D8000E058F10983E080935700E89507B600FCFDCF3097A9F7412C512C0FC0803469F4B1
:207DA000F2013297E03829E7F20738F485E080935700E89507B600FCFDCF9093660084E0FC
:207DC000381203C0CD2B11F4E2C0312C80911201835087FD8EC090910D019D3209F087C093
:207DE000883009F084C083EC809301018AE580930F0180911701807690911801882381F102
:207E0000712C911108C084E899E7909311018093100188E061C0913069F441145104F1F0E4
:207E200080911B018078482E50901C0181E187BFE89514C0933081F48091190190911A0112
:207E40002EDF80911B0190911C0129DF842D8F7729F490E4392E40C09F73392E80E03CC01E
:207E60008091190110920A01911106C010920B012AE031E082E02CC0953019F480931301B2
:207E800019C0963089F480911A01813019F48EE999E704C0823011F78CE899E7909311013E
:207EA0008093100182E118C0983079F0993031F4809315012AE031E080E00AC081E09A30AB
:207EC00009F080E02AE031E003C025E131E081E0309311012093100190911E01911105C0B3
:207EE00090911D01981708F4892F809300011092120180910F0184FF2FC0809100018F3FA4
:207F000059F1C82F893008F0C8E08C1B809300019091010188E8892780930101CC2381F054
:207F2000E0911001F0911101A2E0B1E08C2F94919D9331968150D9F7F0931101E093100188
:207F40006C2F82E091E043DDCC5FCC3019F08FEF80930001C0930F01C30101963C0180391D
:207F6000914029F4EDE7F9E7E491EF3F81F4862D8C7411F02A9801C02A9AD89BE1CE85E1C4
:207F80001C9B85E18150E1F781E08BBBD9CE22982A9814B81092680010926B002092660056
:0C7FA000000081E180935700E895E8CCD8
:00000001FF
